:020000041000EA
:1000000000B5324B212058609868022188439860DF
:10001000D860186158612E4B002199600221596106
:100020000121F02299502B49196001219960352056
:1000300000F044F80222904214D00621196600F024
:1000400034F8196E01211966002018661A6600F04E
:100050002CF8196E196E196E052000F02FF8012189
:100060000842F9D1002199601B49196000215960AB
:100070001A491B48016001219960EB211966A021F2
:10008000196600F012F800219960164914480160C1
:100090000121996001BC002800D000471248134993
:1000A000086003C880F30888084703B5996A0420EC
:1000B0000142FBD001200142F8D103BD02B5186610
:1000C0001866FFF7F2FF186E186E02BD00000240BE
:1000D000000000180000070000035F00212200005C
:1000E000F4000018222000A00001001008ED00E03C
:1000F00000000000000000000000000074B24E7A12
:1001000000200420F7010010C3010010C5010010F9
:10011000C1010010C1010010C1010010C101001097
:10012000C1010010C1010010C1010010C701001081
:10013000C1010010C1010010C9010010CB01001065
:10014000CD010010CD010010CD010010CD01001037
:10015000CD010010CD010010CD010010CD01001027
:10016000CD010010CD010010CD010010CD01001017
:10017000CD010010CD010010CD010010CD01001007
:10018000CD010010CD010010CD010010CD010010F7
:10019000CD010010CD010010CD010010CD010010E7
:1001A000CD010010CD010010CD010010CD010010D7
:1001B000CD010010CD010010CD010010CD010010C7
:1001C00000BE00BE00BE00BE00BE00BEEFF3058054
:1001D000103800BEF2EB8871A0040610BC040610B3
:1001E0003402001090A31AE700201F49086006C8D7
:1001F00081F3088810471D48006800282FD10DA4FE
:100200000ECC002902D000F012F8F9E71849194A7B
:10021000002000E001C19142FCD1174988471749ED
:1002200088471749884700BEFDE701C901C29A42C5
:10023000FBD37047BC040610C0000020400D002016
:100240005C11061000000420000004205C11061060
:10025000001004200010042000000000704709482E
:1002600003F0C4F80047000008ED00E0000000D0F3
:10027000600D002018D90020F12000102D0300107F
:10028000B12000105756000006005250ABB3605327
:10029000F4C8011006005250861C030204C9011064
:1002A000060052505422A29D10C901100500525060
:1002B000DE65F4685C110610F8B5C04606480749CB
:1002C000091A8B10C90FC91810B5491003D0044B77
:1002D000002B00D0984710BD400D0020400D00209D
:1002E00000000000054B10B5002B03D00449054861
:1002F00000E000BFFFF7E2FF10BDC04600000000B5
:1003000068C3002000B6011010B5040001210020D0
:1003100010F016FC200001F002FA0021002010F07D
:100320000FFC200001F0FBF910BD000010B586B0F5
:1003300010F040FC00283DD16430FFF7E5FF0FF0DE
:1003400033FD6420FFF7E0FF08F09CF86420FFF71E
:10035000DBFF1C480022110005F028FF04AC062238
:100360000021200003F0B8FCC020C000002202924F
:100370000723019300941300010008F0FFFF1249C6
:1003800017200EF0F5FF01200FF040F801200EF0CD
:1003900087FF0121002010F0D3FBFA246400200025
:1003A00001F0BDF90021002010F0CAFB200001F08F
:1003B000B6F9EEE7054803F00FFE0120404206B013
:1003C00010BDC0462CB6011014B6011000B60110C5
:1003D00010B58300084A944663441A68402462407A
:1003E000803414408022520113431C60C000034B30
:1003F0009C466044416010BD04C001400040014083
:1004000080000B4B9C46604400290DD00823002A35
:100410000CD004221343026853400C221A4080235C
:100420005B0103431A6070470023F0E70022F1E705
:1004300004C00140002909D08000094B9C4660445B
:1004400080239B01034302221A6070478000044B03
:100450009C466044C0239B01034302221A60F4E7D8
:1004600004C0014070B5D0231B061B68094C9D00D9
:100470002C59204207D1074D9B0004435C510D20AD
:1004800000F0E8F970BD044B044A0548CC2101F0A6
:1004900013FEC0464CD3002004B70110DCB7011096
:1004A00030B7011010B50400D0231B061A680B4B9F
:1004B0009200D35818420BD00D2000F0D3FAD0236D
:1004C0001B061B6805499B005A58A2435A5010BD91
:1004D000034B044A0448D62101F0EEFD4CD3002022
:1004E0008CB70110B8B7011030B7011007230340D3
:1004F0009B00C00899403C308000014BC1507047C0
:1005000000400140F8B507000C0016001D00FFF781
:10051000EDFFFB089B00ED18072038408000844069
:10052000002E04D080239B012B431C60F8BDC02308
:100530009B012B431C60F9E710B5D0231B061B68F9
:10054000002B03D0024BFFF7DDFF10BD014BFAE794
:10055000304101400041014010B501238340D022C9
:100560001206936293610521FFF732FF10BD000070
:10057000034B1B6802201840431E9841C0B27047CD
:1005800000C00640EFF3108072B6034B1B68002BCF
:10059000FBD0BFF35F8F70472C0100D0BFF35F8F9C
:1005A000024B00221A6080F3108870472C0100D0A3
:1005B000F8B506000C001500FFF7E4FFE308F71894
:1005C000F15C07222240012393400B4205D1DBB2AC
:1005D0000B433B70FFF7E2FFF8BD2100280001F05C
:1005E00003FEF0B583B00600019114001F00FFF771
:1005F000C9FF00E00134BC420CD8E308F518F35CF5
:100600000721214001228A401A42F3D1D2B21A4373
:100610002A7001E001246442FFF7C0FF002C02DBD6
:10062000200003B0F0BD019B002BF9D0089801F029
:10063000DBFD000070B505000C00FFF7A3FFE30829
:10064000EE18EA5C0721214001238B40134204D0BD
:100650009A433270FFF7A2FF70BD034B034A044870
:10066000332101F029FDC04610B8011090B80110E7
:1006700030B80110002307E0054A9A189200BFF332
:100680005F8F0021116001331F2BF5D97047C046E1
:1006900040000034054A1078431CDBB21370172B5E
:1006A00002D9130010221A707047C046E8060020D5
:1006B000074B9B68103080001950BFF35F8FBFF36A
:1006C0005F8F044B0021196082F310887047C04689
:1006D00000ED00E0240100D01F23181A704700002D
:1006E00010B50388DA0A1C2A05D15B055B150233B5
:1006F0005B00C01810BD034B034A0448B12101F050
:10070000DBFCC046A0B8011038BB0110B8B801101E
:1007100010B5091A0B1F0A4A88180A4A904208D8CD
:10072000C90706D45B105B055B0D0748184380B210
:1007300010BD064B064A0748A32101F0BDFCC04688
:10074000FC070000FE0F000000E0FFFF14B90110DD
:100750002CBB0110B8B8011010B5091A04394A08A9
:10076000090B08D14905490D064B0B430380064B85
:100770001343438010BD054B054A0648AB2101F0E9
:100780009BFCC04600F0FFFF00F8FFFF44B90110DA
:1007900000BB0110B8B8011001238340034A106860
:1007A0001840431E9841C0B27047C04600E100E0C7
:1007B000002904D0034B1860034B18607047034BAB
:1007C0001860FBE780E200E000E100E080E100E08B
:1007D00010B5012383401800FFF7EAFF10BD0000A9
:1007E00001238340014A13607047C04600E200E0E5
:1007F000024B9B6810308000C058704700ED00E04D
:1008000070B504000D00EFF3108672B60C4B1B6838
:10081000002BFBD0BFF35F8F2000FFF7E9FF094BF0
:10082000984201D0A84205D1320029002000FFF7EC
:100830003FFF70BD044B054A0548862101F03CFC92
:10084000240100D0CD01001054B9011060BB01108B
:10085000B8B80110F0B5DE4657464E464546E0B5FD
:1008600089B0814601911500EFF3108A72B66D4B85
:100870001B68002BFBD0BFF35F8F6B4B00269E578E
:10088000002E41DB7400A419A40068482418062235
:10089000A256654B1A70664B9A684B4610339B0004
:1008A000D35898461F00181A2F2839D9614B9845FC
:1008B00030D105AF604B3B80604973009B4698196F
:1008C00080005A4B984640440230FFF721FF788061
:1008D0005B4BBB80FF23BB71FD71019B0793330012
:1008E0005B449B00434407CF07C301231C43A0463E
:1008F000524641464846FFF7DBFE09B0F0BCBB4616
:10090000B246A946A046F0BD4E4B4F4A4F48D721AC
:1009100001F0D2FB4E4B4C4A4C48DE2101F0CCFB9F
:1009200001380C2102F0B6FD002912D101239F43AA
:10093000BB463B000027DA79AA4211D90621595655
:1009400000290CDB4A005218920038491F008B180E
:10095000F1E7404B3C4A3D48EA2101F0ADFB1F0066
:10096000002F2ED005AB3C4A1A80813A5A800623CC
:10097000FB560293002B17DA384805AB9B4698804C
:10098000029A9A71DD71019A0792381D2100FFF7D2
:10099000BFFEB880BE71254B7200921992009B1861
:1009A0005A4613CA13C3A3E7381DFFF799FE010087
:1009B0007000801980001D4BC0180430FFF7A8FE9E
:1009C000DBE705AF1C4B3B801C49730002939B196E
:1009D0009B00164A90461A0042440392901CFFF76F
:1009E00097FE7880039A101D5946FFF791FEB88054
:1009F0001B4B5A464146521A524153431B0DBB7181
:100A0000FD71019A0792029B9B199B00434407CFFB
:100A100007C3114B5A461380813B538001231C436B
:100A2000A04665E7240100D0FDD80020EC06002098
:100A300000ED00E0CD01001000A1FFFF1C07002029
:100A400001BDFFFF8CB9011048BB0110B8B80110FF
:100A5000B4B90110DCB901100148000001BD00006B
:100A6000AAAA0000F0B5CE46474680B583B006007E
:100A70000D00EFF3108872B64F4B1B68002BFBD0B4
:100A8000BFF35F8F4D4B9A6834001034A300D758E2
:100A90004B4B9F4207D0AF4200D18BE00197494BAF
:100AA000FB1A2F2B09D9424639003000FFF700FE10
:100AB00003B0C0BCB946B046F0BD3000FFF76CFED5
:100AC000814600213000FFF783FEBFF35F8FEFF315
:100AD0000581002901D08C4211D10123019C9C4346
:100AE0000020A368AB4212D00622A256002A0DDBDA
:100AF00053009B189B00334A2000D418F1E7324B77
:100B0000324A36213248FF3101F0D6FA2000AB429A
:100B100049D106256557002D2BDB2A4B6A00521957
:100B200092009B189A68A260DA79E2719B795BB2B5
:100B3000A371002B0FDA2748A080224B6A005219BC
:100B400092009B18244A117899711570494630001B
:100B5000FFF73EFEA7E7680040198000194BC01858
:100B60000430FFF7BDFD0100231D1800FFF7D0FD85
:100B7000E2E7002912D100280ED0FF238371174B22
:100B8000838015490B78A3710E4A154BA41A644152
:100B900063431B0D0B70D9E7094FF2E71149201D84
:100BA000FFF7DAFDD2E7104B084A6A210848FF3107
:100BB00001F082FA024F76E7240100D000ED00E058
:100BC000CD010010EC06002050BA011018BB011036
:100BD000B8B8011001BD0000FDD8002001BDFFFF25
:100BE000AAAA00002607002084BA011010B503232A
:100BF00004009C43064A9446644422681840C0009E
:100C0000FC3383409A43130081400B43236010BDA3
:100C100000E400E070B5012202432E4BD31A2F2BC3
:100C200028D8EFF30583002B2BD0EFF3108C72B68E
:100C3000294909680029FBD0BFF35F8F254C27495C
:100C400005002D1B6D416943090D4CB2244989688B
:100C50009B00C95891421BD00021032932D81D4B5B
:100C60004A00521892009B189B795BB2A3421FD096
:100C70000131F2E71B4B1C4AC7211C48490001F017
:100C80001BFA1B4B184A92211848FF3101F014FA45
:100C9000134A92681749D150174B1A7882711C7009
:100CA000BFF35F8F0C4B00221A608CF3108870BD6D
:100CB000084B4A005518AD005D19FF26AE710F4A6A
:100CC000AA80E9E70E4B084AD1210848490001F003
:100CD000F3F9C046EC060020240100D0AAAA0000C7
:100CE00000ED00E08CBA0110E4BA0110B8B80110B0
:100CF000B4BA0110CD010010FDD8002001BDFFFFE6
:100D0000C0BA01100022044B02E0044902C30132C0
:100D1000072AFAD97047C04600E400E0808080804E
:100D200010B5FFF7D9FC0100024B1800FFF782FC59
:100D300010BDC04617D9002010B582B00100074C85
:100D4000074B0093052300222000FFF74AFC0028F0
:100D500001DB1F23181A02B010BDC04617D90020AE
:100D6000C8BA011070B504000E001500FFF792FC20
:100D70000100200000F006F8A680E580BFF35F8F39
:100D800070BD0000024B9C466144890001607047C1
:100D90004000003410B50400FFF77CFC0100200087
:100DA000FFF7F0FFFF232371BFF35F8F10BD10B576
:100DB0000400FFF76FFC01002000FFF7E3FFFF23B3
:100DC000237100236371BFF35F8F10BD084B5B6A13
:100DD000994209D8064A926A824207D2994201D0C2
:100DE000012002E0002000E0002070470120FCE725
:100DF0000040054010B500290AD003681B7B8B42D8
:100E000006D38068054B9C4661440901401810BD1B
:100E1000034B044A04483C2101F04EF9FFFFFF0F49
:100E20009CBC011078C00110C0BC0110F8B50400D2
:100E30001700FFF7DFFF0668456839002000FFF75D
:100E4000D9FF026843680120AB4201D802D00020DC
:100E5000C0B2F8BDB242FBD8F9E7000010B5002BD4
:100E600002DB0260436010BD024B034A03483F218E
:100E700001F022F914BD011044C0011030BD011071
:100E800010B582B004000498059912184B41002B4C
:100E900009DB6846FFF7E2FF009A019B226063606E
:100EA000200002B010BD01225242014BF1E7C046C2
:100EB000FFFFFF7F10B5002908D0037B8B4205D3CD
:100EC00000684B005B18033BC01810BD024B034A7F
:100ED0000348682101F0F0F894BD011020C0011012
:100EE000B0BD011010B5437B8B4201D1012010BD74
:100EF000FFF7E0FF8378002B01D10020F7E7012006
:100F0000F5E770B50400857B002D01D1280070BD88
:100F10002900FFF7CFFF4378A373002B00D1E373C1
:100F20000023837043700370F0E70000F8B50600FB
:100F30000C001500FFF7BEFF0700002C0DD0002DA0
:100F400011D0AC4215D029003000FFF7B3FF8470F8
:100F50003B78002B13D13D70F8BD0A4B0A4A0B4871
:100F60006F2101F0A9F80A4B074A0848702101F0E7
:100F7000A3F8084B044A0548712101F09DF843701D
:100F80003D70E9E718BE0110FCBF0110B0BD0110B3
:100F900024BE011030BE011070B506000D00140013
:100FA000002914D0002A14D043688068984700288C
:100FB00006D0220029003000FFF7B8FF280007E024
:100FC0002A0021003000FFF7B1FF200000E01000F0
:100FD00070BD0800FCE7000070B504000D1E0CD0C9
:100FE000FFF768FF0023837043700370617B2A0062
:100FF0002000FFF7D1FF607370BD034B034A044824
:10100000A52101F059F8C04648BE011010C00110DA
:10101000B0BD011070B504000D1E0FD0FFF762FFC8
:1010200000280BD1E17B00290ED1A37B002B03D13B
:10103000E37B002B0DD1A573E57370BD084B094A06
:101040000948F62101F038F82000FFF733FF45701A
:10105000EBE7064B034A0448FB2101F02DF8C0469C
:101060004CBE0110ECBF0110B0BD011070BE0110EC
:1010700010B5002907D003681B7B8B4203D3C068DF
:101080000139401810BD034B034A0448412101F0C7
:1010900013F8C0469CBC0110D8BF0110C0BC0110A1
:1010A00070B505000C00080000F094FC0949200010
:1010B00000F0D4FBFFF7EEFA074B9C46604480003B
:1010C00068602C75D0231B061B786B75034BA4003E
:1010D000E55070BDED1100104000003480C30020C9
:1010E0000A4B1A68EFF3108172B61368002BFCD01C
:1010F000BFF35F8F054B1B68BFF35F8F00221A6041
:1011000081F3108840BF0020002170476CD500207B
:1011100010B582B0040000F081FB02000B006846AD
:10112000FFF79CFE009A019B22606360200002B0E2
:1011300010BD70B584B0040016001D0002A8FFF7B2
:10114000E7FF029A039B009601952000FFF798FEA7
:10115000200004B070BD0000F0B583B0070001921C
:101160001D000AAB1C780BAB1E78002C0BD000685E
:101170002100FFF7B7FE002809D0194B194A1A4879
:10118000672100F099FF0068FFF7BBFE0400002C08
:1011900002D1200003B0F0BD21003800FFF72AFE85
:1011A000019B03604560089B8360099BC3603868AE
:1011B0002100FFF711FFA042EBD1387D019A2B00EF
:1011C00000F094FB051E01D0002E04D00C9B002BD8
:1011D000DFD01D70DDE73868210000F041FDF5E744
:1011E00084BE01102CC00110C0BC0110F0B5DE4659
:1011F00057464E464546E0B58FB00B900021784BE0
:101200008200D458894682E029002000FFF7F2FDD1
:10121000804602684368921BBB41002B09DD4346B0
:101220001A685B680B9800F061FB00239846002663
:1012300089E0002B01D1002AF1D10021584600F0AD
:1012400005FD0700A84215D143461A685B6808925D
:10125000099343469E68DB689846002E10D029000B
:101260002000FFF705FF037899461B021F43276103
:10127000002068E05B4B5C4A5C488E2100F01CFF5C
:101280005B4B594A5948922100F016FF2369002B05
:1012900077D0BB4219D106980799002342428B416F
:1012A00000920193089A099B0CA8FFF7E9FD0C9A9C
:1012B0000D9B00210491013103910295414601915A
:1012C00000962000FFF748FF16E04A4B464A474881
:1012D000A12100F0F1FE069A079B002B01D1002A04
:1012E00052D120682900FFF795FE29002000FFF762
:1012F000BFFE037801330370002323616268BFF3EC
:101300005F8F13608AF310880120002861D00CA839
:10131000FFF7FEFE0C9E0D9F00220023089209930A
:101320006268EFF3108A72B61368002BFCD0BFF32B
:101330005F8F23689B465D7B002D00D064E7002310
:101340009846002600206368BFF35F8F00221A6072
:101350008AF31088002ED8D04B461F022F434146F7
:101360003800B047069007916268EFF3108A72B6B2
:101370001368002BFCD0BFF35F8F079B002B00DAB4
:1013800084E7079B002BA6DD2369002BA9D0BB4275
:1013900019D10CA8FFF7BCFE0C9A0D9B0698079973
:1013A000009001910CA8FFF76BFD0C9A0D9B00219A
:1013B000049101310391029541460191009620006C
:1013C000FFF7CAFE98E70B4B074A0848A42100F034
:1013D00073FE0FB0F0BCBB46B246A946A046F0BDB6
:1013E00080C30020ACBE01105CC00110C0BC011065
:1013F000C4BE0110D0BE011010B50C4B5B68002BB1
:1014000004D00B480A21FFF7BDFC10BD074C094A68
:1014100020682300102100F084FB032000F0F2F983
:1014200003212000FFF73CFEEBE7C0463407002015
:101430006CD500202D0E001010B5064B5B68002BFC
:1014400001D0044810BD044B044A05485E2100F059
:1014500033FEC046340700200CBF0110C0BF01108E
:10146000C0BC0110F0B5DE4657464E464546E0B5D5
:101470008DB0060090461F00169B9A46179B994612
:1014800018AB1B780793272302AA944663440022D3
:101490001A7021E001003000FFF7EAFD00783CE01F
:1014A0000698002B5CD0079B002B59D04946D047AB
:1014B00004000D0003000B4359D0002940DB08A8AD
:1014C000FFF726FE089A099B0094019508A8FFF7EC
:1014D000D7FC089B9846099F7268EFF3108B72B691
:1014E000136859424B41D9B20691002BF8D1BFF392
:1014F0005F8F273302AA9446634404930023039327
:1015000002934B4601935346009342463B00300002
:10151000FFF722FE0400051EBCD17368BFF35F8F86
:10152000002119608BF31088002D17D0272302AA01
:10153000944663441B78002BB2D100022043B0E7ED
:1015400000236242AB410092019342463B0008A84F
:10155000FFF796FC089B9846099FBDE70120404293
:101560000DB0F0BCBB46B246A946A046F0BD0698F9
:10157000F6E7F0B5C64600B584B00500884616000B
:101580001F000AAB1C78FFF757FF029401970096E3
:101590002A004346FFF766FF04B080BCB846F0BDA2
:1015A000F0B5C64600B504000D004268EFF31087A1
:1015B00072B61368002BFCD0BFF35F8FEEB22368C6
:1015C000984631001800FFF78DFC00282AD02369C7
:1015D000AB4213D02D0AEDB231002000FFF748FDD9
:1015E0000378AB4211D000206368BFF35F8F002205
:1015F0001A6087F3108880BCB846F0BD0C4B0D4ACA
:1016000095210D48490000F057FD3100404600F09B
:1016100027FB0028E8D1094B064A32210648FF3152
:1016200000F04AFD2369AB42DED100232361DBE7F2
:1016300030BF0110A8BF0110C0BC011054BF011081
:1016400010B50400FFF7F8FE2100FFF7A9FF10BD59
:10165000407D704730B587B004000D00EFF305837F
:10166000002B20D106225242D31712196B418B4214
:1016700002D803D1824201D90022002304A8FFF737
:10168000EDFB02A8FFF744FD02980399049A059B1D
:10169000121A8B41002B0BDC08D02000290000F02F
:1016A000C9F807B030BD144800F09EFD002AF4D000
:1016B000124A0498059900230093FFF75AFF002867
:1016C00013DAEAE70E4B1A68EFF3108172B613686B
:1016D000002BFCD0BFF35F8F094B1B68BFF35F8FFC
:1016E00000221A6081F3108820BF04980599FFF743
:1016F0006DFB0028E6D0D0E758BF0110E1100010C4
:101700006CD5002000B583B002000B006846FFF7DF
:1017100010FD00980199FFF79DFF03B000BD10B5C3
:10172000FA2292000023002102F04CFAFFF7EAFFB0
:1017300010BD000030B583B005000C00EFF3058349
:10174000002B0FD10B4A00230093FFF712FF002854
:101750000BDD20BFFFF774FF28002100FFF736FBE9
:1017600003B030BDFFF732FBFAE728002100FFF796
:101770002DFBF5E7E110001070B5EFF30580103890
:10178000EFF3108C72B6194B1B68002BFBD0BFF324
:101790005F8F01221300834015494B6315490B608D
:1017A000154909780C00C440224213D0104A546AEB
:1017B000124A8500AA58944205D3114AAA580E4CE1
:1017C0009943217007E00A4A031D9B0099589950DC
:1017D000002200E00022BFF35F8F044B002119605C
:1017E0008CF31088002A00D0904770BD280100D0EB
:1017F000004005403C70054016D90020A4D60020CA
:101800004010002010B50100024A034B1800FEF7FB
:10181000CFFE10BD90C00110F6D80020044B5B6ACB
:10182000034A906A1900536A9942F9D17047C04639
:1018300000400540084B5B6A01E0074B5B6A8B4246
:10184000FBD301E0044B5B6A8B4203D1024B9B6AE2
:101850008342F7D37047C0460040054070B504008E
:101860000E00EFF3108572B61B4B1B68002BFBD0EC
:10187000BFF35F8F002E1CD02000FEF7B9FF174B7F
:1018800083420BD019002000FEF7BAFF012120008F
:10189000FEF79EFF0123A340114A1360114BA400E1
:1018A000E650BFF35F8F0C4B00221A6085F310885F
:1018B00070BD0C4BA2000021D1500122A2400A4968
:1018C0000B7893430B7005492000FFF7CBF80021FC
:1018D0002000FEF77DFFE4E7280100D07917001013
:1018E000386005404010002016D90020F0B5DE46D3
:1018F00000B584B00400150001921E000293FFF7AA
:101900008DFF03958E4202D84ED185424CD9EFF31C
:10191000108B72B6274B1B68002BFBD0BFF35F8F79
:10192000254A17780125A540EBB23B431370234BA2
:101930005D63221D92000199D150214AA1000298B5
:1019400088501B6A2B4212D11C4B1B6C2B4208D0B7
:101950000020BFF35F8F174B00221A608BF31088B3
:1019600023E0184B184A1948C52100F0A5FBFFF7E2
:1019700055FF8E4214D802D1039B834210D80E4BE0
:101980001B78BB420ED00D4B1D625D631F222240AF
:10199000012393400E4A1360074B1F700120D8E7C4
:1019A0000020D6E70120D4E7012004B080BCBB466C
:1019B000F0BDC046280100D016D9002000400540E7
:1019C000A4D60020B4C0011038C10110D8C0011045
:1019D00080E200E0EFF3108C72B60B4B1B68002B1B
:1019E000FBD0BFF35F8F01238340084A136208498D
:1019F0000A789A430A70BFF35F8F034B00221A6084
:101A00008CF310887047C046280100D00040054084
:101A100016D9002010B5002908D0037B8B4205D3CE
:101A200000684B005B18033BC01810BD024B034A13
:101A30000348682100F040FB94BD01105CC2011016
:101A4000B0BD0110F8B506000C001500FFF7E2FF6D
:101A50000700002C0DD0002D11D0AC4215D029006C
:101A60003000FFF7D7FF84703B78002B13D13D7017
:101A7000F8BD0A4B0A4A0B486F2100F01DFB0A4BC8
:101A8000074A0848702100F017FB084B044A054834
:101A9000712100F011FB43703D70E9E718BE0110A1
:101AA00048C20110B0BD011024BE011030BE0110AB
:101AB00070B506000D001400002914D0002A14D0BF
:101AC000436880689847002806D02200290030002B
:101AD000FFF7B8FF280007E02A0021003000FFF7D9
:101AE000B1FF200000E0100070BD0800FCE770B5F9
:101AF00005000023437301338373037BC373012405
:101B000006E021002800FFF785FF0134E4B24470AD
:101B1000297BA142F5D82800FFF77CFF0023437002
:101B200070BD10B5017342608360FFF7E0FF10BD28
:101B3000F0B5C64600B505000C1E03D1200080BCE0
:101B4000B846F0BDFFF766FF4678002EF6D03100AC
:101B50002800FFF75FFF4778002398464370210075
:101B60002800FFF757FF434643703200210028004A
:101B7000FFF79EFF040039002800FFF7D9FF02009D
:101B800021002800FFF794FF0400D7E7F0B5C64610
:101B900000B504000D001700002927D0FFF73AFF19
:101BA0004378002B28D18378002B2BD1017820009B
:101BB000FFF7BEFF06008046002F0AD0E17B002918
:101BC00026D1A37B002B03D1E37B002B25D1A5736A
:101BD000E5734346002B26D129002000FFF71AFFAA
:101BE00000234370300080BCB846F0BD114B124A50
:101BF0001248382100F060FA114B0F4A0F483A2181
:101C000000F05AFA0F4B0C4A0C483B2100F054FAF2
:101C10002000FFF7FFFE4570D3E70B4B064A07484D
:101C2000422100F049FA31002000FFF7F3FE0023C3
:101C30008370D1E754C1011034C201105CC101109E
:101C4000B0C10110D8C1011070BE011070B5040000
:101C50000A00457B2900FFF799FF6073280070BDDB
:101C600070B506000C1E40D0437B8B4207D0FFF7B7
:101C7000D1FE05008178002906D1002036E001213F
:101C8000FFF7E4FF012031E03000FFF7C3FE0178E9
:101C9000A1420DD03000FFF7BDFE4178A1420AD02D
:101CA0000029F7D1124B134A13486B3100F004FAA4
:101CB0006B78037001E06B7843700023AB706B703E
:101CC000012221003000FFF761FF0200717B814299
:101CD00005D03000FFF7ECFE7073012006E0074BE3
:101CE000044A0548712100F0E7F9002070BDC046A4
:101CF000C0BA01101CC201105CC10110FCC101106E
:101D0000F8B5DE4657464E464546E0B506000F009C
:101D100015000A9A93424ED31A0E92461B02984619
:101D20000A9A00234046514601F0F2FB81467400B6
:101D3000A419A4002E4B9C4664446368834200D2DD
:101D40006060331FDBB29B46012B3AD9C0239B0155
:101D50002343802212011A60264BB200D158002979
:101D600005D0586901F096FB01300138FDD16D01B5
:101D700023685D40E0222A4080235B0123431A60F0
:101D80005A46012A28D980239B012343802212012D
:101D90001A604B4663604A4600234046514601F0B4
:101DA000B7FB144BB60098510120F0BCBB46B246BD
:101DB000A946A046F8BD104B104A11482D2100F04D
:101DC0007BF9012FC2D1C0239B01234303221A6058
:101DD000A368DB07FCD5CAE72168794003220A40E3
:101DE0001A60A3680125BD401D42FAD0CBE7C0466A
:101DF000008000409C13002068C20110DCC201106A
:101E00007CC2011030B583B00C2000F017F9FEF74A
:101E1000AFFB00280DD0002304E02E4A99002E4885
:101E200088500133092BF8D92A4B2C4A5A6203B047
:101E300030BD2B4B00229A6700F008F9294B012294
:101E40001A60274B5B6C012BFBD1274B03221A60D6
:101E5000234B9B6B012BFBD1013300930433234AAB
:101E60000121234800F054F805230093214A012161
:101E7000214800F04DF8214B00930022022104205C
:101E8000FFF73EFF1E4D00952B000022012105208B
:101E9000FFF736FF104C009423000022002107209A
:101EA000FFF72EFF00942300002200210820FFF7F7
:101EB00027FF0A4B00932300002200210920FFF78F
:101EC0001FFF00952B00002200210620FFF718FFBE
:101ED000ADE7C0469C130020006CDC021BB700007D
:101EE000008000403CB0004030B00040002F6859F6
:101EF00000800240008C864700C00240001BB700F3
:101F000040597307014B8000C05870479C13002054
:101F1000F0B5C64600B504000D00170098460C2029
:101F200001F0B8FA0600394BFA18394B9A4241D8F9
:101F300043011B1A9901C91AC900091889013800FF
:101F400001F0A8FA0200103A98235B009A4237D8B1
:101F50004346013B062B39D8069B013B062B35D85F
:101F60003F09B74238D343461E04069B1B031E435A
:101F70002368002B36DB274B9C4244D080235B0137
:101F8000254A1360254A1360254A92681900914337
:101F9000FAD12560A060221DC0239B01134321229A
:101FA0001A602268002AFCDAE66008221A6080BC07
:101FB000B846F0BD1B4B1C4A1C48112100F07CF8B0
:101FC0001B4B194A1948192100F076F8194B164A8B
:101FD00016481C2100F070F8174B134A13482321B0
:101FE00000F06AF822683F231340AB42C3D1A368D4
:101FF0001B051B0D8342BED1E368EE22D2021340C3
:10200000B342B8D1D3E780239B01B9E780E84BD333
:1020100080F8A93200C0024000E0004000F000401B
:1020200000C00040ECC201102CC401104CC30110D0
:10203000A8C30110C4C3011010C4011080239B0069
:102040000343014AD362704700800540064BAA2231
:1020500012011A602F22DA60044B054A1A60024B03
:102060005B68002BFBDA70470040024000600240D2
:1020700000B0FA0000BEFDE703000A4A1268002A19
:1020800008D0084A1068C318074A9A4206D3054A7E
:1020900013607047034A05491160F2E7012040428E
:1020A000F7E7C046C82800200000042018D9002007
:1020B00010B5FFF7DFFF000030B583B00D00190049
:1020C000002A0BD0074B084C019200932B00020012
:1020D000200001F081FF0120FFF7CCFF034B1A0025
:1020E000F1E7C04638C4011048C40110E0E405100F
:1020F00070B52B4B2B4A1A602B4B2C4A1A602C4B79
:102100009A682A4B9343FAD12A4C01E008CC9847AD
:10211000294B9C42FAD3FFF775FE234B274A1A60DE
:10212000234B9B68DB43DB01FAD1254B40229A67A6
:102130005A671A67DA66234C09E0234B234A24487E
:102140008621FFF7B9FF2000FEF724FE0834214B5B
:102150009C4209D22368002BF5D0012BEDD1200041
:10216000FEF725FE0834F2E71B4DA9681B4CC02280
:10217000200001F0B7FDAC60EFF30583002B00D029
:1021800000BEFEF777FAFEF7BDFDFFF735F9144CF8
:1021900001E008CC9847134B9C42FAD370BDC0466F
:1021A00000E00040BFCDFBFE00F00040FE7F3C00A1
:1021B00000C00040280D0020380D0020FFFFFF0167
:1021C00000F00140200D002078C4011018C5011056
:1021D00098C40110280D002000ED00E00000002050
:1021E000380D0020400D00200FB400B583B0084822
:1021F00001F0C2FE049B002B07D005A90191180035
:1022000001F0CAFE034801F0B7FE0120FFF732FFDC
:10221000F8C40110FCC2051010B50148FFF7E4FF37
:1022200008C50110704710B5002802D00B68496836
:10223000984710BD0100002007E083001B185B00D9
:10224000501C08601078C01830380A681378303B8A
:10225000DBB2092BF1D97047F0B5DE4657464E4642
:102260004546E0B583B093461F000C9B9A460D9CF3
:102270000E9B99460F9B9B0703D0B8460F000600A4
:1022800022E00192A34688464E46B9460700B44272
:1022900007D2551C4B4641462020B84701342A003E
:1022A000F5E73D004F465C46019B9B46B1464646DE
:1022B000B84637002E0007E0013C551C5346185D18
:1022C00043463900B0472A00002CF5D135003E00C6
:1022D00047460F9B9B0707D4100003B0F0BCBB46DA
:1022E000B246A946A046F0BDB0464E46B9462F00BC
:1022F0005D46531BB342EFD2541C4B46414620204F
:10230000B8472200F5E7F0B5CE46474680B585B020
:10231000944698460C9D0D9C0EAB1B789946109ADE
:10232000119B129EB7071CD4002B0CD0F7070AD5BF
:102330004F46002F02D10C37374204D0013B02E058
:1023400030272F550134944201D21F2CF8D9F707BA
:1023500007D59C4205D21F2C03D830272F550134B6
:10236000F5E7F70612D5770505D4002C03D0944283
:1023700021D09C421FD00F9A102A32D00F9A022AE5
:1023800037D01F2C0AD830222A5501341F2C05D8EB
:102390004A46002A33D02D222A550134039602934F
:1023A0000194009543466246FFF756FF05B0C0BC56
:1023B000B946B046F0BD621E012C10D00F9F102F01
:1023C0000BD014000F9A102AD8D1B206D6D51F2CE4
:1023D000D4D858222A550134D3E7023CCBE7140065
:1023E000C9E7B206EED41F2CECD878222A55013466
:1023F000C7E71F2CD2D860322A550134C1E77207D3
:1024000003D52B222A550134C8E73207C6D520222E
:102410002A550134C2E7F0B5DE4657464E464546DA
:10242000E0B593B081468A46089209931CAB10CB65
:102430001B789B461E9D219B9846002C03D11023A0
:1024400042469A4390468023DB0046461E40424661
:102450001A4212D0002C22D000260EE03033D9B21E
:10246000771C0AAB99552900200001F013F8AC4203
:1024700016D31F2F14D83E0004002900200001F0BD
:1024800009F8CBB2092BE9D94246920605D541217C
:10249000C918C9B20A39C9B2E2E76121F8E72700D1
:1024A00043460693209B05931F9B049303955B462D
:1024B000029301970AAB0093099B089A514648463C
:1024C000FFF721FF13B0F0BCBB46B246A946A046B9
:1024D000F0BDF0B5DE4657464E464546E0B597B0EE
:1024E0000A900B910C929A46209B9946219F22AA12
:1024F00013789B46249B0993259C289B98464A4623
:102500003A4302D11032934398468022D200454686
:102510001540434613420AD04A463A4341D000256B
:102520002E0053460D934D46099B9A461BE02E0004
:1025300053460D934D46099B9A4614E03033DAB268
:10254000731C99460EAB9A55524623002800390059
:1025500000F0DEFFBC4226D819D04B461F2B1CD8FA
:102560004E4605000F00524623002800390000F0B7
:10257000CFFFD3B2092BE1D94246920605D54122BD
:10258000D218D2B20A3AD2B2DAE76122F8E7AA4503
:10259000E3D94E460D9B9A4608E04E460D9B9A465F
:1025A00004E0002602E04E460D9B9A464346069301
:1025B000279B0593269B0493099B03935B460293F9
:1025C00001960EAB009353460C9A0B990A98FFF7AD
:1025D0009AFE17B0F0BCBB46B246A946A046F0BD75
:1025E000F0B5DE4657464E464546E0B591B08046CA
:1025F00089460C929A461A9C1B9D22002B002000B3
:10260000290001F000FA002800D0ECE0012252423B
:10261000D44B2000290001F0F1F9002800D0E2E0BD
:1026200001225242D04B2000290001F0D1F90028AC
:1026300000D0D8E0002200232000290001F0C8F9D2
:10264000002800D0E4E0069407958023DB001E9A62
:102650001A400D921E9A1A4201D106231C93069825
:10266000079902000B000892099303000A00024335
:1026700000D1D9E0080D4005400DBC4EB446604481
:102680000A03120B1E00BA4B13431F0001F0CEF9D0
:10269000B84AB94B01F05DF9B84AB94B01F03AF9C3
:1026A000089009910022B74B3000390001F02DF954
:1026B000B54AB64B01F04DF902000B000898099994
:1026C00001F028F901F0CAF9834601F0AFF90600DC
:1026D0000F00AF4AAF4B01F03CF90022AE4B01F0C6
:1026E00019F901F0BBF90890AC4AAD4B3000390044
:1026F00001F02FF906000F00089801F097F9A94A98
:10270000A94B01F026F902000B003000390001F05E
:10271000FCF806000F0002000B0001F01AF90A9005
:102720000B91089BA14A9446634400210022089122
:1027300009921B0509930023089332003B003000E7
:10274000390001F0E7F80E900F9132003B000020B5
:102750008021C90501F0D9F806000F000022944B32
:102760000A980B9901F0DBF80022924B01F0D2F8A5
:1027700002000B000A980B9901F0D1F800228E4B51
:1027800001F0C8F802000B000A980B9901F0C7F895
:1027900002000B003000390001F0BCF802000B0011
:1027A0000E980F9901F0BBF80022714B01F0B2F8BE
:1027B000089A099B01F0CDF806000F0008960997CA
:1027C000069A079B01F01AF900282FD001235B42DB
:1027D0009C46E3440022774B3000390001F09FF81B
:1027E0000890099122E01E9B04931D9B03931C9B60
:1027F00002930094019553460C9A4946404600F0D6
:10280000FFF811B0F0BCBB46B246A946A046F0BDE9
:102810000021002206910792069480231B069C4605
:10282000AC446346079310E700239B465B46633343
:10283000C62B20D804261E9B1B0528D5089A099B69
:10284000190011430FD05D4A5D4B0698079901F0BE
:10285000CDF800287AD000225A4B0698079901F04B
:10286000B7F8002872D01C9B5B4506DD5A469B1AC0
:10287000013B1C9303E00526DDE700231C93802326
:10288000DB001E9A1A431E92002600239B461D9BC6
:102890009E4265D29F1B02231E9A1A400A921E9ADC
:1028A000134202D0002E00D000275B46002B07D039
:1028B000089A099B0698079901F031F8069007914C
:1028C000002200232000290001F082F8002800D017
:1028D0007CE03D4B1E9A1340049303971C9B02938C
:1028E000069B079C0093019453460C9A4946404628
:1028F00000F086F8002E00D183E71E9B9B0671D561
:102900004525441C5346020049462800C0475A4604
:10291000D317D2185A4005230593013E049600238D
:1029200003930A3302935B46DB0F019300925346F5
:10293000220049464046FFF76EFD0A9B002B00D15E
:102940005FE7020047460C9E1D9D53E01C9B002B39
:102950009DD00D9B002B9AD01C9B013B1C9396E7AE
:10296000002798E7FFFFEF7FFFFFEFFF01FCFFFF6E
:102970000000F03FFB799F501344D33FB3C8608BF6
:10298000288AC63F0000F83F61436F63A787D23FA4
:1029900071A379094F930A400000E03F1655B5BB7B
:1029A000B16B0240EF39FAFE422EE63FFF03000012
:1029B00000002C4000002440000018402D431CEB78
:1029C000E2361A3F80842E41FFF7FFFF069C079DE9
:1029D0002200290080200006844661440B000692F4
:1029E000079376E765258CE7541C5346494620201B
:1029F000B8472200931BAB42F6D3100001E7C04654
:102A0000F0B5DE4657464E464546E0B595B00690D1
:102A1000079193469946209F1E9A1F9B100019000C
:102A200000F0F1FF002831D101225242BF4B1E9825
:102A30001F9900F0CDFF002837D101225242BC4B34
:102A40001E981F9900F0DAFF00283DD10022B94BF3
:102A50001E981F9900F0D2FF002850D10022B64BDB
:102A60001E981F9900F0B4FF002848D100220023CF
:102A70001E981F9900F0ACFF002850D10023984603
:102A8000229B5B0500D4B6E0002458E0229B039310
:102A9000219B029303230193A84B00934B465A4674
:102AA00007990698FFF7D8FB0EE1229B0393219B21
:102AB000029304230193A24B00934B465A46079975
:102AC0000698FFF7C9FBFFE00423229A1A402299D7
:102AD0000B4210D09B4B002A0FD004222299039165
:102AE00021990291019200934B465A460799069804
:102AF000FFF7B2FBE8E0944BEDE70322EEE7229B01
:102B00000493219B039302971E9B1F9C00930194A7
:102B10004B465A4607990698FFF762FDD4E01E9A85
:102B20001F9B0020002100F0F0FE1E901F9101234A
:102B30009846A5E70CAB30221A55013F01341F2CF3
:102B400001D8092FF6D81E981F9900F087FF0500BD
:102B500000F06CFF02000B001E981F9900F0D5FEDC
:102B60007A4BFA009B181A685B680A920B9300F084
:102B7000F0FE0890099100F095FF060000F052FF6A
:102B800002000B000898099900F0BFFE0890099117
:102B900000226F4B00F032FF00282ED001363000AB
:102BA00000F040FF02000B000A980B9900F016FF9E
:102BB000002801D001350026002F2CD1280000F07C
:102BC00035FF02000B001E981F9900F09EFE0600C4
:102BD0000F0000225E4B00F0FBFE002846D10022D1
:102BE0005B4B3000390000F009FF00283ED1EB07B5
:102BF0003CD501353AE0062746E70022544B0898B9
:102C0000099900F0E5FE0028D6D1002E01D0F30787
:102C1000D2D50136D0E7AA461F2C11D8013F0A2190
:102C2000300000F037FC651C30310CAB19550A211F
:102C3000300000F02FFC092E0ED906002C00EBE727
:102C400055461F2C0CD87B1E002F09D00CAA302112
:102C500011551F000134F4E72B0055461C00F0E726
:102C60001F2C03D80CAB2E221A5501341F2C10D860
:102C70000A21280000F0E6FB661C30310CAB195528
:102C80000A21280000F0DEFB051E01D03400EDE72C
:102C900034000323229A1340012B1CD01F2C06D88A
:102CA0004346002B32D00CAB2D221A550134229B07
:102CB0000393219B029301940CAB00934B465A461D
:102CC00007990698FFF7C8FA15B0F0BCBB46B246A4
:102CD000A946A046F0BD219B002B13D04346002BF4
:102CE00002D10C3313420FD0219B013B21931900D9
:102CF00003E00CAB30221A5501348C42CED21F2C8B
:102D0000F7D9CBE72199F8E72199F6E7229B5B07F2
:102D100004D50CAB2B221A550134C8E7229B1B07A4
:102D2000C5D50CAB20221A550134C0E7FFFFEFFFD9
:102D3000FFFFEF7F65CDCD4165CDCDC134C501101D
:102D400038C5011028C5011030C50110E0C60110BA
:102D50000000E03FF0B5DE4657464E464546E0B53A
:102D600093B08246884693461193002900D106E32A
:102D700000255646119B1878002800D102E325282B
:102D800009D06C1C5B462A004146B047119B0133B9
:102D900011932500EEE701331193002720E0012372
:102DA0001F4301321192012418E002231F43013214
:102DB0001192012412E004231F43013211920124D5
:102DC0000CE008231F4301321192012406E0102376
:102DD0001F4301321192012400E00024002C09D08D
:102DE000119A1378203BD9B21029F6D88B00C44928
:102DF000CB589F46119B1A781300303BDBB2092B4E
:102E000010D92A2A13D00B94119B1A782E2A1ED07F
:102E1000119A1378683BD9B2122959D88B00B94955
:102E2000CB589F4611A8FFF705FA0B90ECE71C9BC7
:102E30001A1D1C921B68002B04DB0B93119B0133A2
:102E40001193E1E7022217435B420B93F6E78022DE
:102E5000D20017435A1C11925A781300303BDBB250
:102E6000092B0BD92A2AD3D11C9B1A1D1C921C6832
:102E7000002C08DB119B01331193C9E711A8FFF760
:102E8000D9F90400C4E70024F4E780235B003B4346
:102E9000511C119151786C2901D01F0018E0C023FA
:102EA0009B001F430232119212E080233B43511CCE
:102EB00011915178682901D01F0009E0C0231F43F8
:102EC0000232119204E080235B001F430132119211
:102ED000119B1878672816D8252826D30300253B90
:102EE000DAB2422A21D89300874AD3589F468023DA
:102EF0009B001F4301321192EAE780235B001F43CE
:102F000001321192E4E778280FD869280DD3020026
:102F1000693AD2B2012393407C4A13420FD11A0678
:102F200000D507E25B0500D594E16C1C5B462A00E6
:102F30004146B047119B0133119325001AE77828C9
:102F40000AD062283AD06F283BD058283CD01023B2
:102F50009F43063B9C4601E010239C46582836D0F0
:102F6000692803D0642801D00C2297437A0501D543
:102F70000122974369282DD064282BD0BA0500D5AB
:102F8000A2E0FA0500D5C3E07A0600D4D5E01C9A89
:102F9000111D1C911168FF220A4005970B9B049399
:102FA0000394634602930023019300925B462A0038
:102FB00041463000FFF72FFA05002AE002239C4625
:102FC000CCE708239C46C9E710239C46C6E720228D
:102FD0001743C5E7BA0520D4FA0550D47A0666D55A
:102FE0001C9A111D1C911168FF220A40D01711185C
:102FF000414005970B9B0493039463460293D20FC1
:10300000019200915B462A0041463000FFF703FA27
:103010000500119B01331193ACE61C9A073207217E
:103020008A43110008311C91116853689946DB17D7
:103030000C930D930C9A0D9B100048400E904A463D
:1030400053400F930E980F990C9A0D9B801A99413B
:103050000E900F9108970B9B079306946346049379
:10306000002305934B46DA0F0292009001915B46D4
:103070002A0041463000FFF72CFA0500C9E71C9AE8
:10308000111D1C911268D0171118414005970B9B18
:103090000493039463460293D20F019200915B461E
:1030A0002A0041463000FFF7B6F90500B1E73A06BD
:1030B00005D51C9A111D1C910023D25E96E71C9A1F
:1030C000111D1C91126891E71C9A073207218A434F
:1030D000110008311C9108970B9B079306946346D7
:1030E000049300230593029353681268009201939E
:1030F0005B462A0041463000FFF7EBF9050088E700
:1031000040C5011084C50110D0C5011041900000D8
:103110001C9A111D1C9105970B9B04930394634605
:10312000029300230193136800935B462A004146F3
:103130003000FFF770F905006BE73A0606D51C9AD8
:10314000111D1C9112681204120C26E71C9A111D05
:103150001C91126821E7462819D01C9B07330722CF
:1031600093431A0008321C9204970B9A039202941C
:103170001A685B68009201935B462A004146300062
:10318000FFF73EFC0500119B01331193F2E520236C
:103190001F43E2E7672801D0472802D180231B01A3
:1031A0001F43452801D0472801D120231F431C9BE2
:1031B0000733072293431A0008321C9204970B9A94
:1031C000039202941A685B68009201935B462A009E
:1031D00041463000FFF704FA0500119B01331193BB
:1031E000C8E502231A003A4091463B421DD0012413
:1031F0001C9B1A1D1C926F1C18785B462A004146C6
:10320000B0474B46002B14D1119B013311933D0065
:10321000B0E5571C5B4641462020B04723003A00EA
:103220005C1C9D42F5D81500E2E701232A000B9DA6
:10323000F6E73A00B1460B9E06E0571C5B46414656
:103240002020C8472C003A00651CA642F5D817007C
:103250004E46D9E71C9B1A1D1C921B689A46002CEF
:1032600025D101225242534601E001330A00197868
:10327000002902D0511E002AF7D152469B1A802203
:10328000D200390011408946174202D0A34200D92A
:10329000230002221100394010913A4209D02A003D
:1032A000250057469A4633004E46994621E02200B3
:1032B000D9E72A004546A04606E0541C5B46290093
:1032C0002020B0473B0022005F1C0B999942F4D8A4
:1032D0004446A8463B00250057469A4633004E46D2
:1032E000994606E01D000137541C5B464146C8471D
:1032F00022003878002804D0002EF4D06B1E002D58
:10330000F0D1150053464E46109A002A03D1119B66
:10331000013311932EE50B9F2A0006E0551C5B46F6
:1033200041462020B04723002A005C1C9F42F5D86C
:103330001500ECE721233B431C9A111D1C911268D8
:103340000593082304930394083302930023019305
:1033500000925B462A0041463000FFF75CF805000A
:10336000119B0133119305E56C1C5B462A00414615
:103370002520B047119B013311932500FAE40B4B34
:103380009A46F5E4B2465D450DD35B465A1E5B4650
:1033900041460020D047280013B0F0BCBB46B246DF
:1033A000A946A046F0BD2A00F1E7C046252200103C
:1033B00000B585B0029003910121044800931300E9
:1033C0004A4202A9FFF7C6FC05B000BD2722001043
:1033D00001480421014B1847600700200D340010FC
:1033E000014B9B68184700006007002010B50100E2
:1033F00018231B8814221088984710BD10B50100AF
:1034000018231B8816221088984710BDF0B5C646B1
:1034100000B507000E0000250123984600E00135A5
:10342000B5420AD2AC003C192068FFF7DFFF2060EC
:103430000028F4D100239846F1E7404680BCB84606
:10344000F0BD0000124A936F9B0815D29066D166BA
:10345000002905D0FFE7FFE7FFE7516F106F7047C6
:1034600004B580210906C2175140002800D0C84386
:1034700018F096F8002104BDF0B5146E556E576F24
:10348000166FFFF7E3FF1466556657671667F0BDC2
:10349000000000D0114A936F9B0813D2106651664A
:1034A000002905D0FFE7FFE7FFE7516F106F704776
:1034B00004B5002801D00020C04318F071F80021A5
:1034C00004BDC046F0B5146E556E576F166FFFF70A
:1034D000E5FF1466556657671667F0BD000000D01B
:1034E00094464A4A926F9208624601D228E0C0464A
:1034F000F0B5464E346E756E776F366F00F020F87B
:103500009446424A14665566576716676246F0BD90
:1035100094463E4A926F9208624601D254E0C046F9
:10352000F0B53A4E346E756E776F366F00F04CF82A
:103530009446364A14665566576716676246F0BD6C
:10354000002B24DB11D000293EDA00B5C9434042EC
:1035500000D1013100F038F8C943404200D10131B7
:10356000DB43524200D1013300BD002AEBD10028D9
:1035700001D1002905D00020C90FC90701D1C043DE
:10358000410800B517F0F4FF0022002300BD00B58C
:1035900000290ADBDB43524200D1013300F014F86A
:1035A000C943404200D1013100BDC943404200D16E
:1035B0000131DB43524200D1013300F005F8DB4317
:1035C000524200D1013300BD002923D1002B18D174
:1035D000002A0CD0BC460D4F38667A6600210023C5
:1035E000FFE7FFE7FFE77A6F386F6746704700280D
:1035F00001D00748010000B517F0BAFF00220023F0
:1036000000BD02000B00002000217047000000D028
:10361000FFFFFFFF002B00D0BFE0130C28D1002AD2
:10362000E7D080B4114F39667A66FFE7FFE730B420
:10363000040C7B6F396F1B0423433B667A66FFE7FC
:10364000FFE7FFE7C04684B27B6F3D6F1B04234357
:103650003B667A66FFE7FFE7C04600232C042D0C8B
:103660007A6F386F00196941B0BC7047000000D014
:10367000F0B594460025140E01D112020835140F3E
:1036800001D112010435940F01D192000235D40FFB
:1036900001D152000135D40B0134254F7C66254CF5
:1036A0003C660E0C93B2FFE7FFE7FFE73C6F664313
:1036B000360C7703BE467343DF0B5B04C01AB94177
:1036C000130C7343DB18C91ACE086643360CB64494
:1036D00093B273431F0F1B01C01AB941130C7343FC
:1036E0001F0B1B05C01AB941860D8F023E4366436E
:1036F000360C092D24DB520A7243801A7703460ADE
:103700006643360C16235B1BDE40DF40BF19644660
:103710006643821B7046043506330100D940A84039
:10372000C01900D30131A24206D20023F0BD00002F
:10373000000000D0FFFFFFFF121B0130F3D3F1E7C1
:1037400009277F1BFE406446A2B27243801A00D252
:103750000139220C7243130C1204821A99410B0096
:103760007046043513370100F940A840801900D392
:103770000131002B02D1A2420AD2F0BD013000D3A8
:103780000131121BFAD2013BF8D1A24200D2F0BDA6
:10379000013000D30131121BF7E7F0B51C0C00D04B
:1037A00080E00CB400251C0A04D11B02160E334322
:1037B000120208351C0B04D11B01160F33431201F2
:1037C00004359C0B04D19B00960F334392000235C5
:1037D000DC0B02D192185B4101351C009718644143
:1037E0000134464F7C66464C3C660E0CFFE7FFE713
:1037F000FFE7C0463C6F6643360C7703BE4697B280
:103800007743C01B00D20139C01B00D201399FB2DF
:103810007743C91BC91B170C77437E04FF0B801B22
:10382000B941CE086643360C0C2D33DBB644120B7F
:103830001F053A431B0B97B27743C01B00D20139D7
:103840009FB27743C91B170C77433E043F0C801B84
:10385000B941860D8F023E43664329277F1BFE40F8
:103860000C3D7746AF40BF1930BCA2B2ABB2724339
:103870007343801A9941220C7243130C1204801A6C
:10388000994102000B000137001BA941F9D2781EB3
:103890000021F0BD0C277F1BFE4077467F0BAF4019
:1038A000FF19E0E700245D1C07D0144F7D663966E0
:1038B000FFE7FFE7FFE7FFE73C6F95B29EB2654386
:1038C0006643401BB141150C1E0C6543664336042C
:1038D0002F0C3E432D04401BB141994204D20200FB
:1038E0000B0020000021F0BD01D19042F7D3801AD7
:1038F000994101349942F2D3F6E70000000000D06C
:10390000FFFFFFFF48404140484018B4134B5B683D
:10391000019308BD18B4114B1B68019308BD944670
:103920000F4A926F920805D2624618B40B4BDB68BF
:10393000019308BD0A4AF0B5146E556E576F166FA5
:103940006246FFF7F2FF064A146655665767166728
:10395000F0BD18B4014B9B68019308BD64D30020EF
:10396000000000D0FFB550404240504059404B400D
:10397000594000E0FFB5154F4C00640D03D0BC4228
:1039800004D10C0314D80020090D09055C00640D56
:1039900003D0BC4204D11C030AD800221B0D1B0516
:1039A00001264B4009D44B4003D58B4200D18242C3
:1039B000FFBD9942FCD19042FFBD0B43DB1803438E
:1039C0001343F5D0C9434918FFBD0000FF070000AD
:1039D00000B5FFF7CFFF804100BDC04600B5FFF73F
:1039E000C9FF01D9002000BD012000BD00B5FFF7CF
:1039F000B9FF01D9002000BD012000BD00B5FFF7CF
:103A0000B1FF804100BD012040054A00121804D8D2
:103A10005A00121801D8002070470120704700207A
:103A2000704700000021002805D17047C1174840A9
:103A3000401AFAD0C90713B5064B1B6898470CBC4F
:103A4000441CA2401005120B0349091B0905194328
:103A5000114310BD68D400201F04000010B54C00B5
:103A6000620D8023D218DB00D21A5B057E2A10DD9E
:103A70009E3A13DACC170903490819435242D14040
:103A8000640001341532202A05DAD040084360432F
:103A900010BD002010BD0846604310BDC80FC018FF
:103AA000013810BD18B4024B5B6A019308BD0000D9
:103AB00064D3002010B50148FEF796FB30C7011013
:103AC00070B513231C78012C12D0012C12DC214B71
:103AD000214A93642148FFF789FC214B186070BD8F
:103AE00020491D4A9800815001331F2BF8D9ECE77B
:103AF0000023FAE71C48FFF781FC05001B48FFF78D
:103B00007DFC023803789B007F2B09DD1248802260
:103B1000290000F0E7F8022C08D0022CDADCD6E706
:103B2000134B144A14483221FEF7C6FA134B1A8875
:103B3000B5231B029A4209D1114B1A88114B9A42A4
:103B400004D1114B1A88114B9A42E6D00020FEF79F
:103B50004BFBC046913B001064D300204C33000067
:103B600068D40020B53A00105344000053460000CA
:103B700048C701100CC80110A8C701105438000034
:103B8000D8380000494600009C3800005946000023
:103B900007B56046002800D100BE01880A0A02303D
:103BA000DF2AFAD1C9B2820804D30288408800040F
:103BB000104300E00068024A5050039007BD000027
:103BC00064D3002051434343C9188C46110C83B27F
:103BD0004B4310B4040C614392B280B25043624331
:103BE0001C041B0C001910BC59411304120CC01802
:103BF000514161447047000010B50148FEF7F4FAE6
:103C0000E0E4051070B513231E781848FFF7F6FBA3
:103C10000500012E11D0012E09DDAB1E1B789B0083
:103C20007F2B1DDD12488022290000F05BF811482F
:103C3000FFF7DCFB104B186070BD0D4854222900C3
:103C400000F050F8002300E001331F2BE3D8084AAE
:103C50009C00A258002AF7D10849054AA150F3E771
:103C6000074B084A08484221FEF726FA534600004F
:103C70006CD400204C33000068D40020F93B0010C5
:103C800020C80110B8C8011054C8011010B5002890
:103C900004D04018034B984200D810BD0248FEF7EC
:103CA000A3FAC04600000420CCC8011070B505007E
:103CB00016F0F4FE04002900FFF7E8FF200070BDB5
:103CC00010B516F0F5FE10BD01480421014B184750
:103CD000700700200D340010014B1B6818470000CE
:103CE00070070020014B5B68184700007007002038
:103CF00010B50300080011001B68984710BD0000B4
:103D0000F8B507000D001600437D002B02D00024FB
:103D100000200CE003681100280098472DE03B7D4F
:103D200010E03B68154802219847601C0134B442FA
:103D300014DA002CF3DD2B19013B1B780D3B5A42A2
:103D40005341DBB22A5D0A2AF0D1002BEED1A0420A
:103D5000E7DA3B68211A28189847E2E7B04203DA0D
:103D60003B68311A28189847002E06DDAD19013D31
:103D70002B780D3B5A4253413B75F8BD40C90110A9
:103D800070B505000368002B16D00C4B1C6805E0CD
:103D9000290004C92000FFF7B3FF2469002C09D0D3
:103DA0002368002BF9D0064B1B68002BF0D0A342F0
:103DB000F3D1EDE700232B6070BDC0466C220020DC
:103DC0008422002070B505000C000B68802B05D004
:103DD00023685A1C2260E418257170BD0800FFF7A3
:103DE000CFFFF5E710B5002B02DB0260436010BD8A
:103DF000024B034A03483F21FEF75EF914BD011050
:103E000044C9011030BD011010B582B00400FDF7A7
:103E100005FD02000B006846FFF7E4FF009A019BD6
:103E200022606360200002B010BD000070B582B057
:103E3000060014001D00FA229200002306980021BB
:103E4000FFF7C0FE02000B0012196B41002B09DBCB
:103E50006846FFF7C7FF009A019B3260736030002D
:103E600002B070BD01225242004BF1E7FFFFFF7F1D
:103E700030B585B004000D0002A8FFF7C5FF029A17
:103E8000039B00952000FFF7D1FF200005B030BD57
:103E900000B583B0FA2189006846FFF7E9FF009A70
:103EA000019B024817F094FB03B000BD200D0020D9
:103EB00010B5024817F054FB10BDC046200D00207D
:103EC000F0B5CE46474680B583B006000D0090465B
:103ED0001C00FFF7DDFF81466B1C05D0002C08D0CD
:103EE000194F1A4B1C6807E0300017F0B5F90500B0
:103EF000F4E7174FF5E72469002C17D02368002B4F
:103F0000F9D0144B1B68002B01D0A342F3D12A0037
:103F100031002000B8474346002BECD06B46D91D3A
:103F20000A230B7001222000B847E4E74B46002B20
:103F300007D16B1E9D41E8B203B0C0BCB946B04684
:103F4000F0BDFFF7B5FFF4E7F13C00106C22002054
:103F5000013D00108422002010B5064B1C6801E0D2
:103F600098472469002C03D06368002BF8D1F8E748
:103F700010BDC0466C22002070B5050017F06CF92A
:103F800004000023012201002800FFF799FFFFF73A
:103F9000E3FF200070BD000070B5A2B004000E0069
:103FA000FFF776FF0500002301930A483300220043
:103FB00001A9FFF7FDF9040001A8FFF7E1FEFFF7F3
:103FC000CBFF002D02D1200022B070BDFFF770FFA3
:103FD000F9E7C046C53D00100FB400B583B004A991
:103FE00001C90191FFF7D8FF03B008BC04B018471E
:103FF000014B1B6803607047601100200068431E7E
:104000009841C0B27047000030B583B0040008008A
:10401000E388DB0507D52189044B002200921D6847
:104020000023A847208203B030BDC046681100209D
:10403000024B00221A60024B1A8070476411002064
:10404000E2D800200D2802D0072809D07047094B7C
:104050001B788342F8D0074B1860074B1980F5E7AF
:10406000044B1B68002BF1D1024B1860024B1980E6
:10407000ECE7C04664110020E2D8002010B504002F
:104080000068002108F04FF9A080002807D1002324
:10409000E3802381E36023826361236010BD206895
:1040A000022108F040F9E0802068042108F03BF983
:1040B000208123689A1DE260E288920509D5A288D2
:1040C000163A22821A0016326261A2889B18236077
:1040D000E4E7A288083A22821A0008326261F4E713
:1040E00070B504000D1E01D1002070BDFFF780FFE8
:1040F0002000FFF783FF0028F7D02000FFF7BEFF66
:104100002389AB42F4D10120EFE7000010B502890A
:10411000074B1A80C3889B0503D5064B00221A80E3
:1041200010BDC068002108F0FEF8024B1880F7E7C8
:10413000DED80020E0D8002070B504001D00012367
:1041400003704170022108F001F92571052070BD4E
:10415000F0B5D6464F464646C0B588B0884692462A
:104160001F0010AB1B889946B223384A384948468D
:1041700001900097FF3301200BF03AFC4F4501D826
:10418000002F0DD101233A0004214046FFF7D4FF50
:104190000400200008B0E0BCBA46B146A846F0BD15
:1041A00002A8FFF725FF002601241AE00223012CB4
:1041B00001D99E423BD1012C2ED0A3190233534585
:1041C00035D802AD2A892100404608F0BFF80234F4
:1041D000A4B24346181905993200FFF783FD34193C
:1041E000A4B202A8FFF70AFF002820D002AD2800E1
:1041F000FFF744FF2D89002D19D04D4517D8BD423A
:10420000EFD302ABDA8880239B00110019401A42D9
:10421000CCD0F13BFF3BCAE7002906D00222414641
:104220000A550134A4B21E00C7E70122F7E7012CAA
:1042300003D0052342461370ABE70A233A0004215A
:104240004046FFF779FF0400A3E7C0465CC90110B0
:1042500068C90110F0B5C64600B582B005000F0070
:104260001C0008AB1E88052A09D004230022042163
:104270002000FFF761FF02B080BCB846F0BD01210D
:10428000380008F050F880460321380008F04BF859
:1042900000904346320021002800FFF759FFEAE76B
:1042A000F0B583B004000F00150008AE3088E68832
:1042B000F60508D521890B4C0093246813003A00B9
:1042C000A04703B0F0BD208A401A190008F0AAF8F0
:1042D00061690004040C22002800FFF703FD2000A0
:1042E000EFE7C0466811002070B505000800140013
:1042F0001E00032A06D00423002202213000FFF70B
:104300001BFF70BD012108F00EF8A98808F08AF89B
:104310000104090C172008F08BF80123AB716880A9
:10432000023333706A880121300008F00FF8200052
:10433000E7E7000070B5040009490C2216F0B4FE4E
:10434000051E0AD120000E300649022216F0ACFEEE
:10435000002800D10135280070BD0025FBE7C046CC
:1043600098CD0110A6CD011070B50C000389002B6B
:1043700018D0C3889B050DD5C5682800FFF7DAFF64
:10438000002810D00C21280007F0CDFF001B43426D
:10439000584108E0C068002107F0C5FF001B4342F8
:1043A000584100E0002070BD10B50C00022806D076
:1043B0000800FFF7BFFF002806D1002010BD002134
:1043C000200007F0B0FFF9E70C21200007F0ABFF59
:1043D000F4E70000F0B5DE4657464E464546E0B5E8
:1043E00091B00F00150006931AAB1B889846062A59
:1043F00036D90121380007F096FF060082460321D6
:10440000380007F090FF040081460521380007F0CE
:104410008AFF079007370997073DADB208958623B5
:104420004F4A50490290019400969B0001200BF0E6
:10443000DFFA2900380008F069F8A64201D8002EFA
:1044400016D10123320006210698FFF775FE0500FC
:10445000280011B0F0BCBB46B246A946A046F0BD4C
:104460000423002206210698FFF766FE0500EFE709
:104470000AA8FFF7BDFD002700239B46012517E092
:104480008D23374A384900979B0001200BF0B0FA82
:104490003A002900069807F059FF0235ADB22B1DEE
:1044A00043454ED800239B460AAB1F89002F23D1DA
:1044B0000AA8FFF7A3FD0590002842D00AAC20000F
:1044C000FFF7DCFD2389002B01D05345F0D34B458A
:1044D00037D85A46002AE7D0002BD1D0A021890135
:1044E0000AA8FFF741FF0028CAD120490AA8FFF710
:1044F0003BFF0028D8D0C3E707991800FFF734FF27
:104500000028D5D00AAB1A8A089B9A42D0D10F99BD
:10451000099816F0C9FD0028CAD10AAC2089912358
:104520000F4A134900909B0001200BF061FA228989
:104530002900069807F00AFF0235ADB2059B9B469D
:10454000B6E7012D03D00723069A137080E70A23EC
:10455000320006210698FFF7EFFD050078E7C04618
:104560005CC90110A0C90110F0C9011001280000A8
:1045700014CA011070B504000D000389002B26D069
:10458000022A14D0C3889B051AD40800FFF7D2FE74
:1045900000281DD00C21280007F0C5FE0500E068AA
:1045A000002107F0C0FE281A4342584110E00021C4
:1045B000280007F0B8FE01002000FFF7D5FE07E055
:1045C000C068102216F070FD4342584100E0002000
:1045D00070BD0000F0B5DE4657464E464546E0B594
:1045E00091B0884610001F001AAB1B889A461BAB7F
:1045F0001C8806940792584A5849029053460193E2
:104600000097574B01200BF0F3F921001C9807F09D
:104610007DFF574501D8002F0ED101233A0010210C
:104620004046FFF789FD0400200011B0F0BCBB46F6
:10463000B246A946A046F0BD1C990698FFF7B4FE05
:10464000484B9C46604480B201280AD80AA8FFF76C
:10465000CFFC0023994609930893059301241E007B
:1046600029E010233A0010214046FFF765FD0400C1
:10467000DAE7089A2100404607F068FEA11C89B2DB
:104680004A46404607F062FE0434A4B24346181975
:10469000321F0999FFF726FB3419A4B2043CA4B2D7
:1046A000A319079A9A4249DB002305930AAB1B8999
:1046B0009946002B23D10AA8FFF7A0FC83460028C7
:1046C0003CD00AAD2800FFF7D9FC2B89002B01D084
:1046D000BB42F0D3534531D8059A002AE6D0002BCF
:1046E000C7D0A02189010AA8FFF73EFE0028C0D14B
:1046F0001D490AA8FFF738FE0028D7D0B9E7069A67
:104700001C990AA8FFF736FF0028D4D00AAB1B8AF1
:1047100004339BB2012C01D99E420FD1012C07D04A
:104720000AAB1A8908920F9B09935B460593C2E76F
:10473000424613550134A4B21E00F1E7012C03D008
:104740001123424613706FE70A233A0010214046B6
:10475000FFF7F2FC040067E75CC901103CCA0110D6
:10476000BE03000000D8FFFF01280000F0B5C646D8
:1047700000B586B005900C001F000CAE3688072AE5
:1047800008D0152A08D00423002210213800FFF792
:10479000D3FC15E0022500E010250121200007F0E0
:1047A000C2FD80460321200007F0BDFD05340294C0
:1047B000019500904346320039000598FFF70AFF43
:1047C00006B080BCB846F0BD10B50023037043703E
:1047D000002913D0012923D1D388DB0701D5012378
:1047E0000370D388DB0603D5037802210B430370E3
:1047F000D3881B0613D50123437010E0D3885B05D3
:1048000001D501230370D3881B0503D5037802214A
:104810000B430370D3889B0601D50123437010BD61
:10482000034B044A66210448FF31FDF745FCC046AE
:10483000FCEE051074CD011090CA011030B583B0A4
:104840000500140001A8FFF7BFFFE088000B00D0AF
:10485000013001AB5B78002B04D0AB7A002B0ED07B
:10486000002300E000231A0001AB1B78022B0DD0BF
:10487000032B06D0012B0ED0002003B030BD012346
:10488000F1E76B7A002B11D0002A11D12B7A002B83
:1048900010D0002A10D10028EFD0EB79002B0DD0DA
:1048A000002A0DD183420DD30020E6E70820E4E77B
:1048B0000820E2E70520E0E70520DEE70F20DCE73F
:1048C0000F20DAE70C20D8E7F0B5DE4657464E4613
:1048D0004546E0B58DB08146884604921E0016AB71
:1048E0001F8817AB1B889A46594A5A490197009668
:1048F000594B01200BF07CF85146189807F006FE42
:10490000BE4201D8002E0ED10123320008214046BC
:10491000FFF712FC040020000DB0F0BCBB46B2460D
:10492000A946A046F0BD06A8FFF762FB00239B4600
:104930000593039301243FE006AA00214846FFF7B0
:104940007DFF0590002859D14B46198806AD2800F7
:10495000FFF75AFB2B8AFE22120293424CD80233F5
:104960009BB2012C02D9039A9A4247D1012C55D00F
:10497000039BE318049A934208DD022C3ED8131FD0
:104980009BB206AA138202334246537004AB1A8AC2
:104990002100404607F0DAFC0234A4B204AB1B8BC2
:1049A00042461219494609880091002106A8FFF7DE
:1049B00077FC80B22418A4B206A8FFF71FFB0028DA
:1049C0001CD006AD2800FFF759FB2B89002B15D012
:1049D000BB4213D8B342EFD3524618992800FFF7D1
:1049E000C9FD0028E8D0EB889B07A5D45B46002BC7
:1049F000E2D12B899B46DFE7DBB20593012C13D86C
:104A0000059B002B14D15B46002B18D10A233200E2
:104A100008214046FFF790FB04007CE7424613550F
:104A20000134A4B20393A3E709234246137072E74B
:104A3000320008214046FFF77FFB04006BE70223AA
:104A40005A4608214046FFF777FB040063E7C0465B
:104A50005CC90110E4CA01105A020000F0B5C64654
:104A600000B586B005900C001F000CAE3688072AF2
:104A700008D0152A08D00423002208213800FFF7A7
:104A80005BFB15E0022500E010250121200007F066
:104A90004AFC80460321200007F045FC05340294BF
:104AA000019500904346320039000598FFF70CFF4E
:104AB00006B080BCB846F0BDF0B58BB007000D0065
:104AC00003921C00B723274A274900949B0001202A
:104AD0000AF08EFF210004A8FFF702FB002824D073
:104AE00004ABDB889B0727D504AA00213800FFF719
:104AF000A5FE031E28D1398804AE3000FFF784FAE2
:104B0000338AFE221202934224D8039E013EB3B29E
:104B10006A1C39880091002104A8FFF7C1FB80B20C
:104B2000013080B20B232B700CE0012322000A21FC
:104B30002800FFF701FB05E0022322000A212800DC
:104B4000FFF7FAFA0BB0F0BD22000A212800FFF7A8
:104B5000F3FAF7E7DBB222000A212800FFF7ECFAAC
:104B6000F0E7C0465CC9011020CB011070B505000C
:104B700008001C0004AB1E88032A06D00423002270
:104B80000A212000FFF7D8FA70BD012107F0CBFB06
:104B90000300320021002800FFF78EFFF4E7000039
:104BA000F0B5CE4600B58AB007000D0003921C0098
:104BB00010AB1E88304A314901960094304B0120D9
:104BC0000AF016FF210004A8FFF78AFA002820D077
:104BD00004ABDB889B0723D504AA00213800FFF72C
:104BE0002DFE031E26D1398804AB99461800FFF725
:104BF0000BFA4B461B8AFE221202934220D8B34284
:104C000025D30D232B7004AB1B8AB34226D8012079
:104C10000CE0012322000C212800FFF78DFA05E0AB
:104C2000022322000C212800FFF786FA0AB080BC7C
:104C3000B946F0BD22000C212800FFF77DFAF5E708
:104C4000DBB222000C212800FFF776FAEEE70723FB
:104C500022000C212800FFF76FFAE7E7039B013BD6
:104C60009BB26A1C39880091310004A8FFF718FB39
:104C700080B2013080B2D9E75CC9011048CB011085
:104C800016030000F0B5C64600B582B005000F005F
:104C90001C0008AB1E88052A09D0042300220C2121
:104CA0002000FFF749FA02B080BCB846F0BD0121F0
:104CB000380007F038FB80460321380007F033FB4B
:104CC00000904346320021002800FFF769FFEAE721
:104CD000F0B5DE4657464E464546E0B58BB0070078
:104CE0008B4691469A46D623364A3749504600901D
:104CF0009B0001200AF07CFE002303930026002580
:104D00000124554548D26900149807F00CFB0600B1
:104D1000031E03902DD0010004A8FFF7E1F900283D
:104D20002FD004ABDB889B0735D504AA00213800BF
:104D3000FFF784FD061E2FD1398804AB9846180072
:104D4000FFF762F943461B8AFE221202934220D8E3
:104D50004B461B1B9BB25A46121939880091002101
:104D600004A8FFF79DFA80B22418A4B20135ADB2B1
:104D7000C7E7013302000E215846FFF7DDF90400B2
:104D80000FE0012332000E215846FFF7D5F9040049
:104D900007E0DEB200E00226002E0AD10F235A46B9
:104DA000137020000BB0F0BCBB46B246A946A0462B
:104DB000F0BD3300039A0E215846FFF7BDF90400F9
:104DC000EFE7C0465CC9011080CB011030B583B05D
:104DD00005001400180006AA1288042C01D9E30764
:104DE00006D4042300220E21FFF7A6F903B030BD3C
:104DF000013C6408A3B20131009101002800FFF7D3
:104E000067FFF3E7F0B58BB003900E0014001F00AE
:104E1000022A31D90121300007F085FA050001008E
:104E200004A8FFF75DF900282ED02C4B1B68002B3F
:104E300031D004ABDB881A0734D5DB0539D504AA99
:104E400001210398FFF7FAFC031E39D104A8FFF7EC
:104E50005DF9039B1888214B033CA4B201940336EF
:104E600000961C68002300222900A04700282DD1AD
:104E700013233B70012005E0042300221221380097
:104E8000FFF75AF90BB0F0BD01232A0012213800B8
:104E9000FFF752F9F6E703332A0012213800FFF733
:104EA0004BF9EFE703232A0012213800FFF744F9FA
:104EB000E8E703232A0012213800FFF73DF9E1E774
:104EC0002A0012213800FFF737F9DBE7C3B22A00C6
:104ED00012213800FFF730F9D4E7C04674110020E2
:104EE000F0B5D6464F4680B58BB006000D001400D5
:104EF0001F0012AB1B889A46042A39D901212800C9
:104F000007F011FA81460321280007F00CFA0390FC
:104F1000374B1B68002B36D0494604A8FFF7E0F852
:104F2000002837D004ABDB881A073AD5DB053FD51C
:104F300004AA01213000FFF781FC00283FD130880E
:104F40002B4B621F92B201926A1D00921E68039B56
:104F500001224946B047072838D00D2836D000280E
:104F600038D0C3B24A4616213800FFF7E5F805E00D
:104F70000423002216213800FFF7DEF80BB0C0BC76
:104F8000BA46B146F0BD03334A4616213800FFF752
:104F9000D3F8F3E701234A4616213800FFF7CCF88F
:104FA000ECE703234A4616213800FFF7C5F8E5E78A
:104FB00003234A4616213800FFF7BEF8DEE7030058
:104FC0004A4616213800FFF7B7F8D7E7C0B249467E
:104FD000FFF738F85146200007F024FA0204120CBB
:104FE00029003800FEF77EFE17233B702000C5E73E
:104FF00074110020F0B58BB003900D0014001F0059
:10500000022A01D80BB0F0BD0121280007F08BF96E
:105010000600144B1B68002BF4D0010004A8FFF716
:105020005FF80028EED004ABDB88DA05EAD51F4232
:10503000E8D004AA0121039F3800FFF7FFFB0028F6
:10504000E0D104A8FFF762F83888064B033CA4B20D
:105050000194033500951C68002300223100A0470D
:10506000D0E7C0467411002010B582B0041E08D0ED
:105070000378012B07D0094A0949EA2302200AF0E4
:10508000B7FC02B010BD054A06490090ED2301208F
:105090000AF0AEFC0134044B1C60F2E75CC901105D
:1050A000B4CB011010CC011060110020014B18602E
:1050B0007047C04668110020014B18607047C04619
:1050C0007411002010B582B00088054B00220192B7
:1050D00000921C68002303320021A04702B010BDDB
:1050E0007411002070B582B004001D00012A25D97A
:1050F000234B1E68002E28D04B78002B3CD0214B30
:105100001B68002B07D10088019300930422002123
:10511000B0471C4B18601B4B1B68002B1CD1208810
:10512000174B0022019200921C68002302320021DA
:10513000A04719232B70012002B070BD0423002268
:1051400018212800FEF7F8FFF6E7032300221821B4
:105150002800FEF7F1FFEFE72000FFF7B3FF094B50
:105160001E78094B1C88FEF763FF330022001821CC
:105170002800FEF7E1FFDFE7FFF7A4FFD9E7C0460D
:105180007411002064110020E2D80020F0B583B033
:105190001C0046880D78522D3FD8AB00224FFB589B
:1051A0009F462300FFF7A0F803B0F0BD0096230050
:1051B000FFF750F8F8E700962300FFF70BF9F3E745
:1051C00000962300FFF74AFCEEE700962300FFF766
:1051D000CDFCE9E700962300FFF754FDE4E70096D5
:1051E0002300FFF7F3FDDFE700962300FFF7BEFA89
:1051F000DAE700962300FFF705FED5E700962300C7
:10520000FFF76EFED0E700962300FFF76BFFCBE7BA
:105210000423FFF7EFFE0020C6E706230022290043
:105220002000FEF789FFBFE728CC011000B587B04A
:1052300001000B4B1B88834209D10A4B18880A4B8B
:105240009C46604443425841C0B207B000BD684626
:10525000FEF746FF0028F8D06846FEF757FFECE758
:10526000DED80020E0D80020FED6FFFFF0B5D646FD
:10527000474680B583B00400019115001F00042843
:105280001FD0082816D113783F221A40DB0703D518
:10529000232A14D9012300E0012301225340DBB269
:1052A000304ADB009E58002E04D03B002A000199B2
:1052B0002000B04703B0C0BCBA46B046F0BD0023E2
:1052C000EBE71378792BF5D1274B00221A700026D3
:1052D00001E00136F6B2012E28D8244B1B78F318D2
:1052E0000122134098461F4B4246D200D3589A469B
:1052F000002BEED01B4B4246D2009B181B79002B93
:10530000E7D0184B4246D2009B1800221A713B008E
:105310002A0001992000D04743460133012213405F
:10532000124A137008F010FB0028D2D10E4B1B78E4
:10533000002BBFD101E00133DBB2012BBAD8094AFF
:10534000D9008A58002AF6D0064A52181279002A43
:10535000F1D0054B01221A70042100200AF050FD03
:10536000A8E7C04694D60020F4D80020ECD800204E
:1053700070B582B004000D001600002813D0B523CC
:105380006A461370B13B53700A000221684606F06A
:10539000DDFF32000421684606F0D8FF06236A4686
:1053A00029000420A04702B070BD000010B5034BD7
:1053B0001860034804210AF00FFF10BD94D60020A6
:1053C0006D52001010B504210AF025FD10BD00003B
:1053D00010B5074B01221A71064B1B78002B00D029
:1053E00010BD044B1A7004210AF00AFDF8E7C0460C
:1053F00094D60020F4D8002010B503000A00034919
:1054000088681900FFF7B4FF10BDC04694D600208D
:10541000014B18437047C0460043544210B584B056
:1054200004000A4901A806F079FC01A806F07CFCFA
:10543000002808D001A806F08DFC8388A342F4D888
:10544000C388A342F1D304B010BDC04664D4002089
:1054500010B5FFF7E3FF002801D0C06810BD014B75
:105460001868FBE77011002010B5FFF7D7FF002880
:1054700001D0806810BD014B1868FBE76C1100205B
:10548000F0B5CE46474680B583B081460D009046C4
:105490001F000AAB1E880800FFF7E6FF041E0AD0B3
:1054A00000963B00424629004846A04703B0C0BCD6
:1054B000B946B046F0BD0020F8E7000010B5FFF790
:1054C000ADFF002801D0006910BD014B1868FBE753
:1054D0005C11002030B587B00500154903A806F01F
:1054E0001DFC03A806F020FC002810D003A806F03D
:1054F00031FCC468002CF4D00023019300930422F3
:1055000000212800A047C0B20028EAD00BE0094BD8
:105510001C68002C09D00023019300930422002171
:105520002800A047C0B207B030BD0020FBE7C0464E
:1055300064D400207011002070B586B005000E0004
:10554000114903A806F0EAFB03A806F0EDFB0028CA
:105550000DD003A806F0FEFBC468002CF4D0002395
:1055600001930093320000212800A047ECE7074B8D
:105570001C68002C06D00023019300933200002108
:105580002800A04706B070BD64D400207011002030
:1055900070B584B005000E000F4B1C68002C04D0C1
:1055A0000B00020000210420A0470C4901A806F0CE
:1055B000B5FB01A806F0B8FB00280BD001A806F047
:1055C000C9FB0469002CF4D033002A000021042018
:1055D000A047EEE704B070BD5C11002064D4002049
:1055E000F0B5DE4657464E464546E0B58BB0884698
:1055F000160008F03FF800284BD00300AD33FF330E
:105600009F68AF30FF3006F0DDFF5C4A5C490397CE
:1056100002904346019300965A4B01200AF0E8F9A4
:10562000002F36DB0023099308A909A806F06AFEBB
:10563000099B002B2DD00023059304939946002548
:10564000B3461E00BA464CE0260006AAD27952455F
:1056500061D106AA928842455FD15E46002E31D0C4
:1056600006AB9B795B451DD006AFBE714B4601333F
:105670000693424A44490095444B01200AF0B8F988
:10568000099B5E68089808233A002100B04700286B
:1056900010D10BB0F0BCBB46B246A946A046F0BD47
:1056A0002600D2E7354A3A4900953A4B01200AF0E4
:1056B0009FF9EEE7314A38490095384B02200AF04D
:1056C00097F9E6E72D4A36490095364B01200AF056
:1056D0008FF9099B9B68089821009847D9E70594A2
:1056E0000135132D1BDCE8B2FFF792FE0400099B85
:1056F0001F680898082306AA2100B8470828EED199
:10570000069B4B4500D99946002E9DD0049A9342A2
:10571000C6D3130099E70493E2E70493E0E7574602
:10572000B2465E46F223154A1F4950460190059C39
:1057300000949B0001200AF05BF9002EA9D0002CF8
:1057400003D15346002BA4D005934B46013306AA40
:105750000693D771434693809671099B5C680898BD
:1057600008230599A047002893D0044A0A490095C8
:105770000E4B02200AF03CF98BE7C046A8CD011081
:10578000B8CD01108A03000028CE0110BB03000031
:1057900008CE0110B603000044CE0110BE03000085
:1057A00068CE0110C203000084CE0110DF030000A8
:1057B000F0B5D646474680B585B007000D00140009
:1057C00003930CAA40CA13889A46032C08D9042CC8
:1057D00008D1FFF77FFE05B0C0BCBA46B046F0BDA9
:1057E000022C19D22800FFF721FD002805D0039BC9
:1057F000002B02D15346022B13D02800FFF728FEBE
:105800008046002817D0534601930096039B220040
:1058100029003800C047DEE72100FFF78DFE002099
:10582000D9E70021300006F07EFD02002900380093
:10583000FFF7D6FEE1E70020CDE70000F0B587B026
:1058400000283ED00300AD33FF339F68AF30FF30F8
:1058500006F0B8FEFA231C4A1C49019700909B00F1
:1058600001200AF0C5F8002F2BDB0023059304A9C3
:1058700005A806F047FD059B002B22D0002400E080
:105880000134132C1DDCE0B2FFF7C2FD0500059BBF
:105890001E680498082302AA2900B0470828EFD1FF
:1058A00002ABDB79BB42EBD1074A09490094094BB3
:1058B00007380AF09DF8059B9B68049829009847D3
:1058C000DEE707B0F0BDC046A8CD0110B8CE01108C
:1058D00068CE0110F9030000F0B583B006000D009A
:1058E00017001000FFF7EAFD041E14D0B6236A4625
:1058F0001370B13B537096702A000321684606F07E
:1059000025FD3A000521684606F020FD07236A467A
:1059100000210420A04703B0F0BD0000F0B5C6464A
:1059200000B58AB0061E55D00300AD33FF339F6823
:10593000AF30FF3006F046FE284A29490197009013
:10594000284B01200AF054F8002F43DB0023099371
:1059500008A909A806F0D6FC099B002B3AD0002420
:1059600000E00134132C35DCE0B2FFF751FD0100FB
:10597000099B1D680898082306AAA8470828F0D1A3
:1059800006ABDB79BB42ECD106AB9A8890469A799C
:10599000002105A806F0DAFC4046FFF759FD051E78
:1059A000DFD006AB9B790D4A0F4902934346019322
:1059B00000940E4B01200AF01BF8D0235B00F05A34
:1059C0009F3BFF3B019305AB009300230022414620
:1059D000A847C6E70AB080BCB846F0BDA8CD011004
:1059E000F0CE01100404000028CF01101A040000BA
:1059F00000B583B00200B42369460B71B23B4B7112
:105A0000022101A806F0A2FC042101A8FFF7C0FDB5
:105A100003B000BD30B583B004000D00B5236A4665
:105A20001370B13B537002000221684606F08EFCF1
:105A30002A000421684606F089FC29002000FFF7AF
:105A4000DBFC06216846FFF7A3FD03B030BDF8B5C7
:105A500004000600A136FF360AF0E6F90AF0DFF985
:105A600005002100D731FF312300AD33FF331A8DFC
:105A700003003000FFF78AFB06000700032802D965
:105A80002B78012B11D0D6235B000022E254002F8B
:105A90002AD0D0235B00E05A320004210AF0CCF96E
:105AA0002B78032B24D00120F8BD2B79082BEAD1C9
:105AB0002300A133FF331B7A002BE4D0D0235B00FB
:105AC000E05A09F06CFD002805D00128DBD10AF06E
:105AD000AFF90020E8E70AF0ABF9D0235B00E05A09
